:0A000000020B54D28AD2AAD2AF221A
:07000B000205B675C12422B5
:0E001300020CB6120E03120D09120ABF80F87D
:10002300020C5EE709F608DFFA8046E709F208DF0B
:10003300FA803E88828C83E709F0A3DFFA8032E3FB
:1000430009F608DFFA8078E309F208DFFA8070889E
:10005300828C83E309F0A3DFFA806489828A83E0D8
:10006300A3F608DFFA805889828A83E0A3F208DFC7
:10007300FA804C80D280FA80C680D4806980F28076
:1000830033801080A680EA809A80A880DA80E2809C
:10009300CA803389828A83ECFAE493A3C8C582C8F1
:1000A300CCC583CCF0A3C8C582C8CCC583CCDFE95B
:1000B300DEE7800D89828A83E493A3F608DFF9ECF7
:1000C300FAA9F0EDFB2289828A83ECFAE0A3C8C582
:1000D30082C8CCC583CCF0A3C8C582C8CCC583CCA9
:1000E300DFEADEE880DB89828A83E493A3F208DF18
:1000F300F980CC88F0EF60010E4E60C388F0ED24E8
:1001030002B4040050B9F582EB2402B4040050AFEA
:10011300232345822390007673BB010689828A8359
:10012300E0225002E722BBFE02E32289828A83E4B3
:100133009322BB010CE58229F582E5833AF583E03E
:10014300225006E92582F8E622BBFE06E92582F85D
:10015300E222E58229F582E5833AF583E49322E3FB
:10016300F5F009E208B5F06D606B80F3E3F5F00993
:10017300E608B5F060605E80F387F009E608B5F045
:1001830054605280F487F009E208B5F04860468075
:10019300F488828C8387F009E0A3B5F03860368059
:1001A300F488828C8387F009E493A3B5F027602554
:1001B30080F388828C83E3F5F009E0A3B5F0166041
:1001C3001480F388828C83E3F5F009E493A3B5F0FC
:1001D30004600280F202028D808580E7808E80D2E7
:1001E300803C8015806C807E809B80B5808B80A155
:1001F300804F8070803A02029989828A83ECFAE404
:1002030093F5F0A3C8C582C8CCC583CCE493A3C837
:10021300C582C8CCC583CCB5F070606E80E189829D
:100223008A83E493F5F0A3E208B5F05E605C80F2A4
:1002330089828A83E0F5F0A3E608B5F04D604B8030
:10024300F389828A83E0F5F0A3E208B5F03C603AD3
:1002530080F389828A83E493F5F0A3E608B5F02A54
:10026300602880F2805389828A83ECFAE493F5F064
:10027300A3C8C582C8CCC583CCE0A3C8C582C8CCFB
:10028300C583CCB5F004600280E27FFFB5F0020FB6
:100293002240027F012289828A83ECFAE0F5F0A3EF
:1002A300C8C582C8CCC583CCE0A3C8C582C8CCC5A9
:1002B30083CCB5F0D560D380E389828A83ECFAE0FE
:1002C300F5F0A3C8C582C8CCC583CCE493A3C8C545
:1002D30082C8CCC583CCB5F0B160AF80E288F0EDC5
:1002E3002402B4040050A3F582EB2402B4040050AA
:1002F3009923234582239001DB73E3F5F009E20898
:10030300B5F06BDFF58067E3F5F009E608B5F05E5D
:10031300DFF5805A87F009E608B5F052DFF6804E24
:1003230087F009E208B5F046DFF6804288828C83C5
:1003330087F009E0A3B5F036DFF6803288828C833C
:1003430087F009E493A3B5F025DFF5802188828C3B
:1003530083E3F5F009E0A3B5F014DFF5801088829C
:100363008C83E3F5F009E493A3B5F002DFF4020410
:100373002C808780E9809080D4803E8015806E80B9
:100383007E809D80B7808D80A380518074803C02E5
:10039300043889828A83ECFAE493F5F0A3C8C58212
:1003A300C8CCC583CCE493A3C8C582C8CCC583CCD1
:1003B300B5F076DFE3DEE1807089828A83E493F52A
:1003C300F0A3E208B5F062DFF4805E89828A83E0FD
:1003D300F5F0A3E608B5F051DFF5804D89828A83F5
:1003E300E0F5F0A3E208B5F040DFF5803C89828AAE
:1003F30083E493F5F0A3E608B5F02EDFF4802A80BA
:1004030002805789828A83ECFAE493F5F0A3C8C586
:1004130082C8CCC583CCE0A3C8C582C8CCC583CC75
:10042300B5F006DFE4DEE280007FFFB5F0020F22C5
:1004330040027F012289828A83ECFAE0F5F0A3C8A7
:10044300C582C8CCC583CCE0A3C8C582C8CCC5834C
:10045300CCB5F0D5DFE5DEE380CF89828A83ECFA81
:10046300E0F5F0A3C8C582C8CCC583CCE493A3C888
:10047300C582C8CCC583CCB5F0AFDFE4DEE280A98A
:1004830088F0EF60010E4E60ABED2402B40400501F
:1004930098F582EB2402B40400508E232345822373
:1004A30090037473EF4E6012EF60010EEDBB010B0E
:1004B30089828A83F0A3DFFCDEFA2289F05007F7F2
:1004C30009DFFCA9F022BBFEFCF309DFFCA9F02243
:1004D300BB010689828A83F0225002F722BBFE0108
:1004E300F322BB010A89828A83F0E5F0A3F022504C
:1004F30006F709A7F01922BBFE06F3E5F009F31985
:1005030022C3E49FFFE49EFEE49DFDE49CFC22BB2A
:10051300010789828A8302059E5005E9F802059244
:10052300BBFE05E9F80205AA22E0FBA3E0FAA3E07B
:10053300F922F8E0FBA3A3E0F925F0F0E5821582A8
:1005430070021583E0FA38F022F8E0FBA3A3E0255C
:10055300F0F9F0E582158270021583E038FAF02293
:10056300EBF0A3EAF0A3E9F022D083D082F8E4937E
:100573007012740193700DA3A393F8740193F58221
:100583008883E4737402936860EFA3A3A380DFEC12
:10059300F608EDF608EEF608EFF622ECF0A3EDF020
:1005A300A3EEF0A3EFF022ECF208EDF208EEF2086E
:1005B300EFF222C0E0C0F0C083C082C0D075D0008B
:1005C300C004C005C006C0079000E5E024B2700374
:1005D3000206E00460030207A79000EF7401F0A392
:1005E300748FF09000DAE0C3139000F1F09000DB19
:1005F300E004F09000D9E0700302068F9000DDE084
:1006030020E003020698A3E06006E014F0020698D7
:100613009000DCE0FCA3E0FDECC313FEED13FFED63
:100623005401FDEF2401FFE43E547FFEEF25E0FF7C
:10063300EE33FEEF4DFF9000DCEEF0A3EFF0900001
:10064300D9E0FD9000DCE0C313FEA3E013FFEE54FA
:100653007FFED3EF9DEE940050209000F1E0FD90DB
:1006630000DCE0C313FEA3E013FFEE547FFEC3EFF1
:100673009DEE94005004D2B2801BC2B2E49000DC21
:10068300F0A3E05401F0E054FEF080099000DDE0B7
:1006930054FEF0C2B29000EFE0FEA3E0FFC390006F
:1006A30001E09F900000E09E500FA3E004F070066D
:1006B300900000E004F00207A7900000E4F0A3F02C
:1006C3009000E6E0FF9000D9E06F70030207A7E017
:1006D300C39F500302079C9000D90207A49000EF28
:1006E300E4F0A37496F0A37403F0A374E7F090000E
:1006F300E9E075F003A4FFE5F0C313FEEF13FF90E9
:1007030000F3EEF0A3EFF09000EBE004F09000E9CB
:10071300E06042E0B46404D2B280439000EDE03084
:10072300E03C9000E9E0FF9000EFE0FCA3E0FDC3B4
:100733009FFFEC9400FE9000EBE0D39FE49E4011FA
:10074300E0FFED9FEC94005004C2B28011D2B2805E
:100753000DC2B280099000EDE054FEF0C2B29000E9
:10076300F1E0FEA3E0FFC3900003E09F900002E0EE
:100773009E500EA3E004F07006900002E004F080A7
:1007830023900002E4F0A3F09000E7E0FF9000E97B
:10079300E06F6010E0C39F5005E004F08006900016
:1007A300E9E014F0900054E07002A3E0600C9000C4
:1007B30055E024FFF09000548057900052E0FFA3CF
:1007C300E0A3CFF0A3EFF090004AE07002A3E06053
:1007D3000E90004BE024FFF090004AE034FFF090CD
:1007E3000050E0FD30E016A3E0600414F0800E90AA
:1007F3000056E04401F0ED54FE900050F090004E9E
:10080300E07002A3E0601090004FE024FFF090003E
:100813004EE034FFF0801090004CE0FFA3E0A3CF44
:10082300F0A3EFF0120E549000E3E07002A3E06037
:10083300109000E4E024FFF09000E3E034FFF08048
:10084300789000E1E0FFA3E0A3CFF0A3EFF09000E6
:1008530008E0FEA3E0FFEE547FFCEF4C6019EE547A
:1008630080FCEF24FFFFEE34FF547F4CFE90000822
:10087300EEF0A3EFF0801F900006E0547FFEA3E0AC
:10088300FFA3E054804EFE900008EEF0A3EFF0903B
:100893000008E04480F09000E5E024B260100470AA
:1008A30018900004E0A3F0900004E4F0800B9000A3
:1008B300DFE0A3F09000DFE4F0D007D006D005D04E
:1008C30004D0D0D082D083D0F0D0E032C100440035
:1008D300E14E1F00004400520013000044004C008E
:1008E3006300004400060000000042004A00014289
:1008F300000400004200DF00004600D900000000B1
:1009030000004600E9000000000000C1014400E5CA
:100913004D0000004200501E00608300560000009E
:1009230000000000000000000000000000000000C4
:1009330000000000000000000000000000000000B4
:1009430000000000000000000000000000000000A4
:100953000000000000000000000000000000000094
:100963000000000000000000000000000000000084
:100973000000000000000000000000000000000074
:100983000000000000000000000000000000000064
:100993000000000000000000000000000000000054
:1009A3006040000A0000000000000000000000009A
:1009B3000000000000000000000000000000000034
:1009C3000000000000000000000000000000000024
:1009D3000000000000000000000000000000000014
:1009E300000000004200000000420002000000631B
:1009F3006865636B206572720A00666F726D61745D
:100A0300206572720A005B64657644696D6D657278
:100A13005D736F7572636520667265713A2564480C
:100A23007A2C206C6F616456616C3A25640A005B12
:100A330064657646616E735D736F75726365206678
:100A43007265713A2564487A2C2062656174506539
:100A530072696F643A25642C206C6F616456616C13
:100A63003A25640A006465764465662066616E73A0
:100A7300006F6B0A006465764465662064696D6D7A
:100A83006572006F70656E00636C6F7365006272F0
:100A9300696768746E6573733A0025640076616CE8
:100AA300756520746F6F206C617267652121210A5F
:100AB3000073706565643A0000000000900056E022
:100AC300FF20E103020B5354FDF0900098E064EF24
:100AD30070759000D8E06404706D78F57C007D013A
:100AE3007BFF7A0A79BBFE7F041200F678F57C005F
:100AF3007D017B017A0079987E007F041200F67BEA
:100B0300017A0079987D03120D9D9000F8E06F70D3
:100B13002E9000F6E0FFA3E0FD120D599000F5744E
:100B2300EEF07B017A0079F57D03120D9D9000F8BC
:100B3300EFF07B017A0079F57D047C00020BE07B0A
:100B4300FF7A0979F280067BFF7A0979FD120E2676
:100B530022787FE4F6D8FD758120020B9B020016F4
:100B6300E493A3F8E493A34003F68001F208DFF4CF
:100B73008029E493A3F85407240CC8C333C4540F47
:100B83004420C8834004F456800146F6DFE4800B1A
:100B930001020408102040809008CFE47E01936096
:100BA300BCA3FF543F30E509541FFEE493A3600147
:100BB3000ECF54C025E060A840B8E493A3FAE493B1
:100BC300A3F8E493A3C8C582C8CAC583CAF0A3C85F
:100BD300C582C8CAC583CADFE9DEE780BE9000F9D3
:100BE300EBF0A3EAF0A3E9F0E4A3F0A3F0D3ED94D0
:100BF30040EC94009000FC4008E4F0A37440F080C3
:100C030005ECF0A3EDF07E007F407D007B017A00D0
:100C1300790A1204A79000FCE0FEA3E0FF780A7CA7
:100C2300007D019000F9E0FBA3E0FAA3E0F91200D4
:100C3300F6E4FEFFD39000FDE09F9000FCE09E40B1
:100C430019740A2FF58274003EF583E0F599D200FA
:100C53002000FD0FBF00010E80DA22C0E0C083C078
:100C630082C0D075D000C007309904C299C2003049
:100C73009836C298900097E0FF04F074572FF582DE
:100C8300E43400F583E599F0900097E0C3943F4086
:100C930003743FF0900050E020E0034401F0900023
:100CA30050E0C313547FA3F0D007D0D0D082D083B9
:100CB300D0E032C0E0C083C082C0D09000E5E02421
:100CC300B2601E0470379000DBE09000DAF0A3E41A
:100CD300F09000DDE04401F0A3740AF0900004807A
:100CE300199000EBE09000EAF0A3E4F09000EDE04F
:100CF3004401F0A3740AF09000DFE004F0D0D0D0F8
:100D030082D083D0E032900056E030E04854FEF0C9
:100D13007E007F407D007B017A0079981204A778DA
:100D2300987C007D017B017A0079577E007F401219
:100D330000F6900097E09000D8F07E007F407D00A1
:100D43007B017A0079571204A7E4900097F0900092
:100D530056E04402F0229000F9EDF0E4A3F0EF2412
:100D6300FE601A0470339000F9E09000E5F07E0015
:100D73007F037D007B017A0079E60204A79000E5FA
:100D8300E024B2600C0470119000F9E09000E6F0EA
:100D9300229000F9E09000E7F0229000F9EBF0A335
:100DA300EAF0A3E9F0A3EDF0E4FFFE9000FCE0FD20
:100DB300EFC39D50189000F9E0FBA3E0FAA3E0F91C
:100DC3008F827583001201356EFE0F80DEAF06221F
:100DD300C28E538EFE438E405389BF5389CF758D88
:100DE300FF758BCCC2AB538FFDD28EE598543F4435
:100DF30040F598D2ACD29C53A23F43A280C20022BA
:100E0300C2AF120DD3120003120E3C120E4D12008C
:100E13000E43B702D2B943B704C2BA53B7EFD2BC39
:100E2300D2AF2212011C6010F599D2002000FD748C
:100E33000129F9E43AFA80EB22438E805389F07555
:100E43008A50758CFBD2A9D28C2243B20453B1FBD6
:050E53002243C1102242
:00000001FF
